{
  "abi": [
    {
      "inputs": [],
      "name": "WrongETHValue",
      "type": "error"
    },
    {
      "inputs": [],
      "name": "YouAreNotOwner",
      "type": "error"
    },
    {
      "inputs": [
        {
          "internalType": "address",
          "name": "collection",
          "type": "address"
        },
        {
          "internalType": "uint256",
          "name": "id",
          "type": "uint256"
        },
        {
          "internalType": "uint256",
          "name": "rentFeePerDay",
          "type": "uint256"
        },
        {
          "internalType": "uint256",
          "name": "startRentFee",
          "type": "uint256"
        }
      ],
      "name": "addNFT",
      "outputs": [],
      "stateMutability": "nonpayable",
      "type": "function"
    },
    {
      "inputs": [
        {
          "internalType": "address",
          "name": "",
          "type": "address"
        },
        {
          "internalType": "uint256",
          "name": "",
          "type": "uint256"
        }
      ],
      "name": "collectedFee",
      "outputs": [
        {
          "internalType": "uint256",
          "name": "",
          "type": "uint256"
        }
      ],
      "stateMutability": "view",
      "type": "function"
    },
    {
      "inputs": [
        {
          "internalType": "address",
          "name": "collection",
          "type": "address"
        },
        {
          "internalType": "uint256",
          "name": "id",
          "type": "uint256"
        },
        {
          "internalType": "address payable",
          "name": "transferFeeTo",
          "type": "address"
        }
      ],
      "name": "getBackNft",
      "outputs": [],
      "stateMutability": "nonpayable",
      "type": "function"
    },
    {
      "inputs": [
        {
          "internalType": "address",
          "name": "",
          "type": "address"
        },
        {
          "internalType": "uint256",
          "name": "",
          "type": "uint256"
        }
      ],
      "name": "nfts",
      "outputs": [
        {
          "internalType": "address",
          "name": "owner",
          "type": "address"
        },
        {
          "internalType": "uint256",
          "name": "rentFeePerDay",
          "type": "uint256"
        },
        {
          "internalType": "uint256",
          "name": "startRentFee",
          "type": "uint256"
        }
      ],
      "stateMutability": "view",
      "type": "function"
    },
    {
      "inputs": [
        {
          "internalType": "address",
          "name": "",
          "type": "address"
        },
        {
          "internalType": "address",
          "name": "",
          "type": "address"
        },
        {
          "internalType": "uint256",
          "name": "",
          "type": "uint256"
        },
        {
          "internalType": "bytes",
          "name": "",
          "type": "bytes"
        }
      ],
      "name": "onERC721Received",
      "outputs": [
        {
          "internalType": "bytes4",
          "name": "",
          "type": "bytes4"
        }
      ],
      "stateMutability": "nonpayable",
      "type": "function"
    },
    {
      "inputs": [
        {
          "internalType": "address",
          "name": "collection",
          "type": "address"
        },
        {
          "internalType": "uint256",
          "name": "id",
          "type": "uint256"
        }
      ],
      "name": "refund",
      "outputs": [],
      "stateMutability": "payable",
      "type": "function"
    },
    {
      "inputs": [
        {
          "internalType": "address",
          "name": "collection",
          "type": "address"
        },
        {
          "internalType": "uint256",
          "name": "id",
          "type": "uint256"
        }
      ],
      "name": "rent",
      "outputs": [],
      "stateMutability": "payable",
      "type": "function"
    },
    {
      "inputs": [
        {
          "internalType": "uint256",
          "name": "",
          "type": "uint256"
        }
      ],
      "name": "rentNFTs",
      "outputs": [
        {
          "internalType": "address",
          "name": "collection",
          "type": "address"
        },
        {
          "internalType": "uint256",
          "name": "id",
          "type": "uint256"
        },
        {
          "internalType": "uint256",
          "name": "startDate",
          "type": "uint256"
        }
      ],
      "stateMutability": "view",
      "type": "function"
    }
  ],
  "bytecode": {
    "object": "0x608060405234801561001057600080fd5b506001600055610d21806100256000396000f3fe60806040526004361061007b5760003560e01c806343af356b1161004e57806343af356b1461014457806397ae9a84146101b8578063b3d34055146101d8578063d4abcacb146101f857600080fd5b8063150b7a021461008057806324e8cab3146100c957806334a02fc5146100eb578063410085df14610131575b600080fd5b34801561008c57600080fd5b506100ab61009b366004610a65565b630a85bd0160e11b949350505050565b6040516001600160e01b031990911681526020015b60405180910390f35b3480156100d557600080fd5b506100e96100e4366004610b45565b61020b565b005b3480156100f757600080fd5b50610123610106366004610b80565b600260209081526000928352604080842090915290825290205481565b6040519081526020016100c0565b6100e961013f366004610b80565b6102cf565b34801561015057600080fd5b5061019361015f366004610b80565b600160208181526000938452604080852090915291835291208054918101546002909101546001600160a01b039092169183565b604080516001600160a01b0390941684526020840192909252908201526060016100c0565b3480156101c457600080fd5b506100e96101d3366004610bac565b610731565b3480156101e457600080fd5b506101936101f3366004610bee565b61082e565b6100e9610206366004610b80565b61086b565b604080516060810182523380825260208083018681528385018681526001600160a01b038a8116600081815260018087528982208d8352909652889020965187546001600160a01b031916921691909117865591519285019290925590516002909301929092559151632142170760e11b815290916342842e0e91610297919030908890600401610c07565b600060405180830381600087803b1580156102b157600080fd5b505af11580156102c5573d6000803e3d6000fd5b5050505050505050565b6102d76109d3565b604051632142170760e11b81526001600160a01b038316906342842e0e9061030790339030908690600401610c07565b600060405180830381600087803b15801561032157600080fd5b505af1158015610335573d6000803e3d6000fd5b505060408051606081018252600080825260208201819052918101829052925090505b60035481101561043957836001600160a01b03166003828154811061037f5761037f610c2b565b60009182526020909120600390910201546001600160a01b03161480156103c9575082600382815481106103b5576103b5610c2b565b906000526020600020906003020160010154145b1561042757600381815481106103e1576103e1610c2b565b600091825260209182902060408051606081018252600390930290910180546001600160a01b031683526001810154938301939093526002909201549181019190915291505b8061043181610c57565b915050610358565b5060006001620151808360400151426104529190610c70565b61045c9190610c89565b11610468576001610486565b6201518082604001514261047c9190610c70565b6104869190610c89565b6001600160a01b038516600090815260016020818152604080842088855290915282200154919250906104b99083610cab565b90508034146104db57604051631c1aa3b760e21b815260040160405180910390fd5b6000805b60035481101561056b57866001600160a01b03166003828154811061050657610506610c2b565b60009182526020909120600390910201546001600160a01b03161480156105505750856003828154811061053c5761053c610c2b565b906000526020600020906003020160010154145b15610559578091505b8061056381610c57565b9150506104df565b506001600160a01b03861660009081526002602090815260408083208884529091528120805484929061059f908490610cc2565b92505081905550336001600160a01b03166108fc60016000600385815481106105ca576105ca610c2b565b60009182526020808320600392830201546001600160a01b031684528301939093526040909101812082549092908690811061060857610608610c2b565b9060005260206000209060030201600101548152602001908152602001600020600201549081150290604051600060405180830381858888f19350505050158015610657573d6000803e3d6000fd5b506003805461066890600190610c70565b8154811061067857610678610c2b565b90600052602060002090600302016003828154811061069957610699610c2b565b600091825260209091208254600392830290910180546001600160a01b0319166001600160a01b03909216919091178155600180840154908201556002928301549201919091558054806106ef576106ef610cd5565b60008281526020812060036000199093019283020180546001600160a01b0319168155600181018290556002015590555061072d9250610a30915050565b5050565b6001600160a01b03838116600090815260016020908152604080832086845290915290205416331461077657604051636abb196760e11b815260040160405180910390fd5b604051632142170760e11b81526001600160a01b038416906342842e0e906107a690309033908790600401610c07565b600060405180830381600087803b1580156107c057600080fd5b505af11580156107d4573d6000803e3d6000fd5b505050506001600160a01b0383811660009081526002602090815260408083208684529091528082205490519284169281156108fc0292818181858888f19350505050158015610828573d6000803e3d6000fd5b50505050565b6003818154811061083e57600080fd5b60009182526020909120600390910201805460018201546002909201546001600160a01b03909116925083565b604051632142170760e11b81526001600160a01b038316906342842e0e9061089b90309033908690600401610c07565b600060405180830381600087803b1580156108b557600080fd5b505af11580156108c9573d6000803e3d6000fd5b505050506001600160a01b0382166000908152600160209081526040808320848452909152902060020154341461091357604051631c1aa3b760e21b815260040160405180910390fd5b604080516060810182526001600160a01b039384168152602081019283524291810191825260038054600181018255600082905291517fc2575a0e9e593c00f959f8c92f12db2869c3395a3b0502d05e2516446f71f85b9290910291820180546001600160a01b031916919095161790935590517fc2575a0e9e593c00f959f8c92f12db2869c3395a3b0502d05e2516446f71f85c830155517fc2575a0e9e593c00f959f8c92f12db2869c3395a3b0502d05e2516446f71f85d90910155565b600260005403610a295760405162461bcd60e51b815260206004820152601f60248201527f5265656e7472616e637947756172643a207265656e7472616e742063616c6c00604482015260640160405180910390fd5b6002600055565b6001600055565b6001600160a01b0381168114610a4c57600080fd5b50565b634e487b7160e01b600052604160045260246000fd5b60008060008060808587031215610a7b57600080fd5b8435610a8681610a37565b93506020850135610a9681610a37565b925060408501359150606085013567ffffffffffffffff80821115610aba57600080fd5b818701915087601f830112610ace57600080fd5b813581811115610ae057610ae0610a4f565b604051601f8201601f19908116603f01168101908382118183101715610b0857610b08610a4f565b816040528281528a6020848701011115610b2157600080fd5b82602086016020830137600060208483010152809550505050505092959194509250565b60008060008060808587031215610b5b57600080fd5b8435610b6681610a37565b966020860135965060408601359560600135945092505050565b60008060408385031215610b9357600080fd5b8235610b9e81610a37565b946020939093013593505050565b600080600060608486031215610bc157600080fd5b8335610bcc81610a37565b9250602084013591506040840135610be381610a37565b809150509250925092565b600060208284031215610c0057600080fd5b5035919050565b6001600160a01b039384168152919092166020820152604081019190915260600190565b634e487b7160e01b600052603260045260246000fd5b634e487b7160e01b600052601160045260246000fd5b600060018201610c6957610c69610c41565b5060010190565b81810381811115610c8357610c83610c41565b92915050565b600082610ca657634e487b7160e01b600052601260045260246000fd5b500490565b8082028115828204841417610c8357610c83610c41565b80820180821115610c8357610c83610c41565b634e487b7160e01b600052603160045260246000fdfea2646970667358221220849fb2e0037ceef7a9ee20e980884cde5a3a4908ea2d3e1d6adbfdfce403cdf464736f6c63430008140033",
    "linkReferences": {}
  },
  "methodIdentifiers": {
    "addNFT(address,uint256,uint256,uint256)": "24e8cab3",
    "collectedFee(address,uint256)": "34a02fc5",
    "getBackNft(address,uint256,address)": "97ae9a84",
    "nfts(address,uint256)": "43af356b",
    "onERC721Received(address,address,uint256,bytes)": "150b7a02",
    "refund(address,uint256)": "410085df",
    "rent(address,uint256)": "d4abcacb",
    "rentNFTs(uint256)": "b3d34055"
  },
  "id": 31
}